:020000044000BA
:100000006F101046130000001300000013000000E2
:100010001300000013000000130000001300000094
:1000200073272034930720006300F702F32700FCB6
:10003000732700BCB3F7E70093F71700639407003A
:10004000678000006F1090496F00904B930700008D
:10005000739007BC736004306F1050639305050004
:1000600037450040130101F8130585AC232E110616
:10007000232C8106232A91062328210723263107D2
:10008000EF20D07DEF20D07C9377F50F1304000094
:100090009304D0001309A000930900056F008002AB
:1000A00063862703130414001307C1003307870076
:1000B000A30FF7FEEF20107FEF2090799377F50FD5
:1000C0006306340113850700E39C97FC9307010640
:1000D000338487001305A000230604FAEF20907CE8
:1000E0001305C1001306000093050000EF20D07235
:1000F0008320C107032481078324410703290107C3
:100100008329C106130101086780000037E3FFFF60
:10011000130101FE37450040232E1100130505ADE4
:1001200033016100EF20D078F32800B037270000BA
:10013000930601013307D700B7E7FFFFB307F700C6
:100140002326F100138507009306000093050000A5
:1001500013060700130880008327C10003A70700C8
:10016000938747003307D70023AEE7FEE398C7FE27
:10017000832705009386160013054500B385F50017
:10018000E39C06FD732600B0330616419356F641F4
:100190003723000093962601330161008320C101BB
:1001A00093D62601B386C6003745004093D6E64075
:1001B000130545AE130101026F20506A37E3FFFFBC
:1001C000130101FE37450040232E1100130585B1B0
:1001D00033016100EF20D06D732800B03727000095
:1001E000930601013307D700B7E7FFFFB307F70016
:1001F0002326F10013860700B726000093070101AC
:100200001307000093050000B386F6001305800075
:100210008327C10023A0E70093874700E39CD7FE14
:10022000832706001307170013064600B385F50061
:10023000E310A7FE732600B0330606419356F6413D
:100240003723000093962601330161008320C1010A
:1002500093D62601B386C6003745004093D6E640C4
:10026000130585B2130101026F20505F37E3FFFFD2
:10027000130101FE37450040232E1100130545B53B
:1002800033016100EF20D062732800B037270000EF
:10029000930601013307D700B7E7FFFFB307F70065
:1002A0002326F1001385071013860700930500002D
:1002B000930607008327C10003A70700938707025F
:1002C000B385E500E39AD7FE2320B6001306460067
:1002D000E312A6FE732600B0330606419356F6419C
:1002E0003723000093962601330161008320C1016A
:1002F00093D62601B386C6003745004093D6E64024
:100300001305C5B6130101026F205055130101FEFC
:1003100037E3FFFF37450040232E1100130545B991
:1003200033016100EF20D058930601013727000008
:100330003307D700B7E7FFFFB307F700B716000092
:100340002326F100B386D7009305000003A707001A
:1003500093874700B385E500E39AD7FE732500B085
:100360000326C1008327C10003A707009387470026
:10037000B385E500E39AD7FE2320B60013064600B6
:10038000E312F6FE732600B03306A6409356F641FC
:10039000372300009396C600330161008320C1011A
:1003A00093D6C600B386C6003745004093D6464173
:1003B0001305C5B6130101026F20504A37E3FFFF52
:1003C000130101FE37450040232E11001305C5BA65
:1003D00033016100EF20D04D732800B037270000B3
:1003E000930601013307D700B7E7FFFFB307F70014
:1003F0002326F100138507021386070093050000EA
:10040000930607008327C10003A7070093874700CF
:10041000B385E500E39AD7FE2320B6001306460015
:10042000E312A6FE732600B0330606419356F6414A
:100430003723000093962601330161008320C10118
:1004400093D62601B386C6003745004093D6E640D2
:100450001305C5B6130101026F2050403755004007
:10046000130585A26F00D01E37450040130101F827
:100470001305C5CE23206107232E7105232C81058A
:10048000232A91052328A105232E1106232C81065A
:10049000232A9106232821072326310723244107F5
:1004A000232251072326B105EF209040B757004083
:1004B000938787412326F102B717000093870780AF
:1004C0002320F102B74700409387C7D52322F102CA
:1004D000B7570040130D1000938787D3B307FD4033
:1004E000232A0102930C0000130C0040930B000020
:1004F000130B0040232EF102F32700B0232CF1024E
:10050000B75700401306006E93050002138587D38A
:10051000EF304043B7570040138587411306006E04
:100520009305F007EF3000429307A00523289103BD
:100530002324F102930C0C00930D004013090000DA
:1005400093090B00138C0B00032A01031304000012
:10055000232E2101930B4014130B004013090400B8
:100560008B14BD0383270102B384F4000B069B00A8
:100570000327C1018B0AEC008B0499008B175D03E4
:100580000B859900B387A7400B84E9000B178D02F8
:100590008B149C02B70650001317A7003307D7002F
:1005A000B30497000B882D01232601010B17CA0203
:1005B0008B95FC023307B7409305E0010B97E502EA
:1005C0002324E1000B15FA020B96CC029307F000EE
:1005D0003305C5000B95A70293850400EF1050204A
:1005E000930705000B869D010328C1008B180C039F
:1005F000232A11010B880901232801010B16CB02C4
:1006000013070005232CC1009305C5000B13B70287
:1006100003278100232661009387B7001305070095
:1006200013074001938504006360F70AEF10501B25
:100630000323C100B7065000B384D440930585025C
:10064000B757004093D4F440B38565009387874142
:1006500093948401130575021307E004B387B70070
:1006600093D484416362A7060328010183284101D2
:1006700003870700B7560040938686D333880A4124
:10068000B3081041B385B60063D0E40433084803CF
:100690000326810123809700338808413306C84030
:1006A0001356A64033048640135474409347F4FF16
:1006B00093D7F7413374F4008327410233848700D2
:1006C000834704002380F500930750000B9727030E
:1006D000135787403307EB408B97670393D78740C7
:1006E000B38727018B16E7020B96F702B386C60085
:1006F00037063000B306D64093D6B6400B17D70264
:10070000135BA7408B97D702938BFBFF13D9A740AE
:10071000E3980BE40329C101930790000B9727038B
:10072000135777403387ED408B97B70393D77740C4
:10073000338927018B17E7028B152903B706300091
:10074000B387B700B387F64093D7B7400B17F702CC
:10075000935DA7400B19F902832781021359A94021
:100760009387F7FF2324F102E39007DEB757004099
:100770001305A000138987D3930B0C00138B09007A
:10078000138C0C008329C103832C0103EF209011EB
:100790000327C102B7D4CCCC373433039384D4CCF1
:1007A00013043433B3872901630A2703B3879702FD
:1007B0001305A00013D747009397C701B367F7004D
:1007C0006374F40003051900EF20D00D0327C10264
:1007D00013091900B3872901E31A27FD9307500075
:1007E0008B96670393D67640B386DB400B977703EF
:1007F00013577740330B67010B97D6028B156B03AA
:10080000370630003307B7003307E6401357B740C9
:100810008B96E60293DBA6400B1BEB02135BAB400F
:100820000B978703135787403387EC408B979703C9
:1008300093D78740338C87018B17E7028B168C0385
:10084000B387D700B307F64093D7B7400B17F7022B
:10085000935CA7400B1CFC02135CAC40EF10C0473C
:10086000631A0504F32500B0832781033745004050
:100870001305C5D1B385F540EF20407E37450040D4
:10088000130585D2EF20D0020324410337450040F1
:10089000130505D393050400EF20407C9307140053
:1008A00013870700232AF1029307401FE316F7C4BA
:1008B0006F008000EF20C079032481078320C107E7
:1008C00083244107032901078329C106032A8106DE
:1008D000832A4106032B0106832BC105032C8105C6
:1008E000832C4105032D0105832DC10437450040AC
:1008F000130585D3130101086F204076130101FF12
:1009000023261100EFF08FF4B74500403745004033
:100910009385C5D6130545D7EF2040743755004061
:10092000130505AAEF00C0528320C1001305000083
:100930001301010167800000130101FF232611004C
:10094000EF2000718320C1001375F50F1301010121
:10095000678000006780000037550040130585B3AD
:100960006F00004F37450040130101FF1305C5E834
:10097000232611002324810023229100232021011A
:10098000EF20007337450040130545EAEFF00FED07
:1009900013040500374500401305C5EBEFF00FECDD
:1009A000930405000B08A400374900409306050096
:1009B00093070800130708001306040093050000BE
:1009C000130549EDEF2080690B1894009305100082
:1009D0009307080013070800938604001306040019
:1009E000130549EDEF2080670B2894009305200044
:1009F00093070800130708009386040013060400F9
:100A0000130549EDEF2080650B3894009305300005
:100A100093070800130708009386040013060400D8
:100A2000130549EDEF2080630B48940093054000C7
:100A300093070800130708009386040013060400B8
:100A4000130549EDEF2080610B5894009305500089
:100A50009307080013070800938604001306040098
:100A6000130549EDEF20805F0B689400930560004B
:100A70009307080013070800938604001306040078
:100A8000130549EDEF20805D0B78940013060400F8
:100A9000032481008320C10093860400130549EDDF
:100AA0008324410003290100930570009307080087
:100AB00013070800130101016F20405A3745004019
:100AC000130101FE1305C5F1232E1100232C810013
:100AD000232A9100232821012326310123244101C7
:100AE000EF20005D37450040130585F3B70901008D
:100AF00037890000B7140500EF20805B1304000065
:100B0000374A00409389F9FF130939109384E4A10F
:100B1000334634018B06C4000B17C4008B27C40076
:100B2000930504001305CAF633042401EF20005393
:100B3000E31094FE8320C101032481018324410139
:100B4000032901018329C100032A81001301010245
:100B500067800000130101FA37450040232E71031E
:100B6000232C81031305C5F9370C0100B70B100BBB
:100B7000232C8104232E1104232A910423282105E8
:100B80002326310523244105232251052320610515
:100B9000232A91032328A1032326B1031304000071
:100BA000EF200051130CFCFF232E0100938B3B23FD
:100BB0000329C101372B17FF930D0000130B3B7F57
:100BC0008B09B4010B1AB4018B2AB4019305000000
:100BD00093860D001306040013050000EF00D07685
:100BE00093860D001306040093050000930C050086
:100BF00013051000EF0050759304050093860D0057
:100C0000130604009305000013052000EF00D073C5
:100C1000B7470040130D050013091900138507FCA1
:100C20006394990163049A0CEF2080483745004093
:100C300013860D0093880A001388040093070A00A6
:100C400013870C0093860900930504002320A1015B
:100C500013054500EF208040B3778901B38D7D01F6
:100C6000638A0706E39E6DF50327C101B70771008C
:100C7000938757003304F40013071734B71722FF84
:100C80009387A7B4232EE100E314F4F20324810533
:100C90008320C105832441058329C104032A8104DB
:100CA000832A4104032B0104832BC103032C8103FA
:100CB000832C4103032D0103832DC10293050900F9
:100CC00003290105374500401305450713010106B7
:100CD0006F20C038B7470040930509001385C7054A
:100CE000EF20C037E39E6DED6FF01FF8E39EAAF38F
:100CF0006FF09FF637550040130505B76F0040159C
:100D0000130101FF232611002324810023229100D7
:100D100023202101F3273034F32410341307300348
:100D200093F6F707638EE6008320C1000324810059
:100D300083244100032901001301010167800000A1
:100D400093D6F70013D7470193C6F6FF1347F7FF73
:100D500093F6F6011377F70193D5C7009396260013
:100D600093D77700131727003307E50093C7F7FFE2
:100D7000B306D50093F5750013086000130905004C
:100D80000326070003A5060013F4F7016384050991
:100D9000930770006382F506930740006380F504B3
:100DA00093075000639CF5009306F0FF631206085A
:100DB00013172400B307E90023A0D700938444004D
:100DC000739014348320C1000324810083244100E4
:100DD0000329010013010101678000009306F0FF61
:100DE000E30806FC9356F6419355F541EF10501E6B
:100DF000930605006FF0DFFB9306000093050000EB
:100E0000EF10D07793172400B307F90023A0A700B1
:100E10006FF0DFFA9356F6419355F541EF10507895
:100E200013172400B307E90023A0A7006FF01FF9F0
:100E30009306000093050000EF10D07393060500A1
:100E40006FF01FF7374500401305850F6F204026D0
:100E5000130101F72322910823202109232E3107B2
:100E6000232C4107232A51072328610723267107D2
:100E700023248107232291072320A1072326110879
:100E800023248108232EB105130A0500930A850047
:100E9000B74B0040374B0040B74900409304A000D7
:100EA0001309D000374C0040374D0040B74C00408C
:100EB00003250A0013840A00EF20902A1306050078
:100EC000930D05009305D00313050100EF20902733
:100ED00083250A0093070105B38DB70113060100AE
:100EE00013850B1223880DFAEF20401783458A00E3
:100EF000638E0500032644001385091313040401BF
:100F0000EF20C01583450400E39605FE83254A00C3
:100F100013058B12EF208014EFF01FA213040500BD
:100F2000E30C95FEE30A25FFEF20C01783478A00F4
:100F3000638C0700938D0A00638E870083C70D01C1
:100F4000938D0D01E39A07FE1305CC13EF200011DA
:100F50006FF01FF61305A000EF20C01483C7CD006B
:100F60006392070283A54D0013058D14EF20000F37
:100F700083A78D00E780070013858C15EF204013B1
:100F80006FF01FF38320C1080324810883244108E4
:100F9000032901088329C107032A8107832A4107FE
:100FA000032B0107832BC106032C8106832C4106EA
:100FB000032D0106832DC10513010109678000007F
:100FC00037450040130101FF1305C5152326110005
:100FD000EF20C00837450040930500001305851633
:100FE000EF20C00737450040930500001305851723
:100FF000EF20C006F32500B08320C1003745004034
:1010000013058518130101016F2040053745004085
:10101000B757004013071000130600009305100097
:101020001305851923A0E7D26F2040033745004000
:10103000B7570040130600009305000013058519FB
:1010400023A007D26F208001B757004083A507D2A5
:1010500037450040130101FF1305451B23261100EE
:10106000EF10D07F93070000739007B08320C1007A
:101070001301010167800000B757004083A507D224
:10108000374500401305851D6F10507DB757004050
:1010900083A507D2374500401305051F6F10107C4C
:1010A000130101FFB7470F00232611009387072480
:1010B000130000009387F7FFE39C07FEB7470F007C
:1010C00093870724130000009387F7FFE39C07FE34
:1010D000B7470F0093870724130000009387F7FF9B
:1010E000E39C07FE3745004093050000130585206B
:1010F000EF10D076374500409305000013054522D8
:10110000EF10D07537450040930500001305052406
:10111000EF10D07437450040930500001305C52536
:10112000EF10D07337450040930500001305852765
:10113000EF10D0723745004013054529EF101072AB
:10114000374500409305000013058529EF10107105
:101150008320C10037450040930500001305C52CCE
:10116000130101016F10906F37550040130585BCC6
:101170006FF01FCE13F6C5FF3306C500130700003E
:101180006306C50E37339ECCB738871B377854E6D5
:10119000130313D593883859130848B683270500DD
:1011A00013054500B38767029396F70093D717019D
:1011B000B3E7D700B3871703B3C7E7001397D70088
:1011C00093D73701B367F70013972700B307F700EA
:1011D00033870701E314A6FCB3C7E50093F5350098
:1011E000638C050493061000034706006382D50252
:1011F0008346160013052000939686003307D70018
:101200006388A50083462600939606013307D7001E
:10121000B7369ECC938616D53307D7029316F700C0
:101220001357170133E7E600B736871B9386365905
:101230003307D702B3C7E70013D70701B347F70057
:1012400037D7EB851307B7A63387E70237B5B2C2A6
:10125000130555E39357D700B3C7E700B387A70239
:1012600013D507013345F50067800000938705001B
:101270006FF0DFF6B7470040130101D89387874C22
:10128000232E1126232C8126232A91262328212749
:101290002326312723244127232251272320612776
:1012A000232E7125130741009388472403A80700C4
:1012B00003A5470083A5870003A6C70083A60701EF
:1012C000232007012322A7002324B7002326C700D9
:1012D0002328D7009387470113074701E39817FD99
:1012E00083A6070083A74700130481002320D700AB
:1012F0002322F7009304000093090000374B0040BD
:1013000037490040B74A0040130AF0FFB74B00408E
:101310009385040013054B40EF105054832544017E
:1013200013050400EFF01FE50326C4FF9306050034
:101330008325440113870A4613058942638CC6043A
:101340001304C401EF1090518327440193841400C7
:10135000E39047FD3745004013860400938509005C
:101360001305C540EF10904F8320C1270324812728
:1013700083244127032901278329C126032A8126A3
:10138000832A4126032B0126832BC1251301012823
:101390006780000013874B421386060013058942BD
:1013A0001304C401EF10904B832744019389190063
:1013B00093841400E39E47F56FF0DFF9130101FCFD
:1013C000B7570040232C810203A4879FB7570040E2
:1013D0002328210303A9C79FB757004023263103C1
:1013E00083A907A0232A9102232441032322510326
:1013F00023206103232E7101232A91012328A101B7
:101400002326B101232E1102232C8101130A00008F
:10141000930B0002130B0400374D0040B74400400B
:10142000B74C0040B70A0080930D040013050B0071
:10143000EF10807B130C0500EF10406F9305050043
:1014400013050B00EF00507393050900EF00907334
:10145000EF1080791307050093060C0013860B002C
:1014600093058D461385C446EF10503F1307D038BF
:1014700093064000130600029385CC471385C446AB
:10148000EF10D03D9385090013050400EF0090494B
:1014900093050000130C0500EF001048130B000229
:1014A0006356050033CC8A01130BD00213050C00E0
:1014B000EF108073930B0500EF1040679305050054
:1014C00013050C00EF00506B93050900EF00906BC3
:1014D000EF108071B74700401307050013060B009B
:1014E0009385074893860B001385C446EF10103789
:1014F0009385090013050400EF00D06893050000F0
:10150000130C0500EF005041130B00026356050059
:1015100033CC8A01130BD00213050C00EF10C06C02
:10152000930B0500EF1080609305050013050C0078
:10153000EF00906493050900EF00D064EF10C06ADB
:10154000B74700401307050013060B009385474873
:1015500093860B001385C446EF1050309385090025
:1015600013050400EF00506193050000130C050003
:10157000EF00903A130B00026356050033CC8A014A
:10158000130BD00213050C00EF100066930B05003F
:10159000EF10C0599305050013050C00EF00D05D56
:1015A00093050900EF00105EEF100064B74700409C
:1015B0001307050013060B009385874893860B00DD
:1015C0001385C446EF109029938509001305040084
:1015D000EF00907C9305000013040500EF00D0336A
:1015E000130B00026356050033C48A00130BD002AC
:1015F00013050400EF10405F930B0500EF1000533C
:101600009305050013050400EF001057930509002A
:10161000EF005057EF10405DB7470040130705003B
:101620009385C74893860B0013060B001385C446A9
:10163000EF10D022B7470040138587BBEF10102270
:10164000130A1A009307A000630CFA0213050A009C
:10165000EF10C04D93850D00EF00D02C93050000D6
:1016600013040500EF00502B33CB8A00930BD002FC
:10167000E34E05DA130B0400930B00026FF01FDB3F
:101680008320C1030324810383244103032901032D
:101690008329C102032A8102832A4102032B01020A
:1016A000832BC101032C8101832C4101032D0101F6
:1016B000832DC100130101046780000037550040ED
:1016C000130505C66FF0CFF8374500401305457187
:1016D0006F10101E37450040130101FE130585727F
:1016E000232E1100232C8100232A9100232821017D
:1016F000232631012324410123225101EF10501BE5
:10170000374500401305C573EF1050151304D0FF83
:101710003749004093044000930504001305897481
:1017200013041400EF109013E31894FE37450040A3
:101730001305C574EF10D0179304D0FFB74A0040CB
:10174000374A0040930940009385040013858A7846
:10175000EF10D0101304D0FF8B95840013041400F5
:1017600013058974EF10900FE31834FF938414006D
:1017700013050AB5EF10D013E39884FC8320C10150
:101780000324810183244101032901018329C1002C
:10179000032A8100832A41001301010267800000AF
:1017A00037450040130101FE13058572232E1100F9
:1017B000232C8100232A9100232821012326310193
:1017C0002324410123225101EF10900E37450040A0
:1017D0001305C573EF10900813040000374900404B
:1017E0009304600093050400130589741304140026
:1017F000EF10D006E31894FE374500401305C5747A
:10180000EF10100B93040000B74A0040374A004025
:10181000930960009385040013858A78EF10100403
:10182000130400008B8584001304140013058974CD
:10183000EF10D002E31834FF9384140013050AB5A7
:10184000EF101007E39884FC8320C1010324810179
:1018500083244101032901018329C100032A810056
:10186000832A41001301010267800000130101FD7A
:1018700037450040232E3101232A510123286101DD
:1018800023267101232291012320A101130505794B
:10189000B71CE223B7CAB9B5B7C9DC8E370B7710CE
:1018A000B75B1C78372D0110232C410123248101C3
:1018B00023261102232481022322910223202103C3
:1018C000938C8CB2EF10C07E938AFAD1938999A938
:1018D000130A0000374C0040130B7B07938B1BC689
:1018E000130D5D343744238193840C001304845614
:1018F0000B998900130604009306090093850900DB
:1019000013054C7A33046401EF1040756394240589
:10191000130A1A00B3845401E31C74FD37679A2537
:1019200013073751B7B7EC6EB38AEA0037F766662C
:10193000130787D0B389A9019387F785B38CEC008F
:10194000E392F9FA3745004093050A001305C57D77
:101950006F00C001374500401305057CEF10007093
:1019600037450040938504001305C57C032481029C
:101970008320C10283244102032901028329C1017A
:10198000032A8101832A4101032B0101832BC1001A
:10199000032C8100832C4100032D0100130101035E
:1019A0006F10C06B37450040130101FB13058572B2
:1019B00023202105232C4103232A510323286103DB
:1019C0002326710323248103232291032320A103CF
:1019D000232611042324810423229104232E31037E
:1019E000232EB101372D0110EF10806CB71CE223BC
:1019F000B7CAB9B537C9DC8E370B7710B75B1C781F
:101A000093075D34938C8CB2938AFAD1130999A908
:101A1000130A0000374C0040130B7B07938B1BC647
:101A20002326F1003744238193840C001304845649
:101A30000B0D890093D9A4408B1D89021306040065
:101A4000938704001387090093060D00930509008E
:101A500013058C7F33046401EF10406063123D096D
:101A6000130A1A00B3845401E31474FD8327C100E0
:101A700037679A25130737513309F900B38AEA000B
:101A8000B7B7EC6E37F76666130787D09387F7858D
:101A9000B38CEC00E318F9F8032481048320C1041B
:101AA00083244104032901048329C103832A4103B8
:101AB000032B0103832BC102032C8102832C4102DF
:101AC000032D0102832DC10193050A00032A81031E
:101AD000374500401305C57D130101056F100058FF
:101AE000374500401305057CEF104057032481045F
:101AF0008320C10403290104032A8103832A4103AB
:101B0000032B0103832BC102032C8102832C41028E
:101B1000032D010293860D0013860400832DC1015D
:101B200083244104938509008329C103375500406C
:101B300013054582130101056F10405237550040CF
:101B4000130585CA6FF0CFB0937715003305D60221
:101B5000639407001355A54067800000232E11FEF3
:101B6000232A31FE232841FE232651FE232461FE31
:101B7000232271FE232081FE232E91FC232CA1FC25
:101B8000232AB1FC2328C1FC2326D1FC2324E1FC19
:101B90002322F1FC232001FD232E11FB232C21FB0A
:101BA000232A31FB232841FB232651FB232461FBFD
:101BB000232271FB232081FB232E91F9232CA1F9F1
:101BC000232AB1F92328C1F92326D1F92324E1F9E5
:101BD0002322F1F9130141F813050100EFE04FC48E
:101BE00083208107832101070322C1068322810606
:101BF00003234106832301060324C10583248105B1
:101C000003254105832501050326C104832681049C
:101C100003274104832701040328C1038328810388
:101C20000329410383290103032AC102832A810274
:101C3000032B4102832B0102032CC101832C810160
:101C4000032D4101832D0101032EC100832E81004C
:101C5000032F4100832F01001301C10773002030BF
:101C600017E1FF0F1301013A17050000130545EFB7
:101C70007310553097320000938242DA1733000018
:101C80001303C3D9973300009383C309630C730014
:101C900003AE02002320C3019382420013034300DA
:101CA0006FF0DFFE173500001305C50797450000EC
:101CB0009385C5F46308B50023200500130545008E
:101CC0006FF05FFF3715000013050588731045306E
:101CD000EFE0DFC26F0000006F000012B73700F0C6
:101CE00003A707019377270063980700137717006E
:101CF000631C070467800000B757004003A8C7D2E1
:101D0000B7650040B73600F037560040938585AF81
:101D10009308200083A78600E39A07FC832706D355
:101D20009387170093F7F707630CF80003A30600E7
:101D3000032506D32328F6D23385A50023006500AA
:101D400023A816016FF01FFDB73700F0130710002E
:101D500023A8E700B757004083A587D2B7660040A5
:101D600037570040373600F0938686AF832747D237
:101D70006386B700832746006384070067800000FE
:101D8000832747D2B387F60083C707082320F600CE
:101D9000832747D29387170093F7F7072322F7D2B9
:101DA0006FF0DFFC73260030375700401376860053
:101DB0008327C7D293060700375700406306060201
:101DC000032607D3E30EF6FE37670040130787AFFD
:101DD0003307F7009387170093F7F70703450700CA
:101DE00023A6F6D26F000001032707D313050000D6
:101DF000E31CF7FC6780000037570040B7570040EE
:101E000083A707D30325C7D23305F5403335A00098
:101E100067800000B756004003A686D293071600DD
:101E200093F7F707F325003093F585003757004007
:101E300063840504832547D2E38EF5FEF32500BCB9
:101E400013F8E5FF731008BC032747D26318E600B8
:101E5000373700F003284700630608023767004061
:101E6000130787AF3307C7002300A70823A4F6D2C0
:101E7000739005BC6F00C000832547D2E390F5FC4A
:101E8000678000002320A7006FF09FFEB757004037
:101E900023A807D2B757004023A607D2B757004060
:101EA00023A407D2B757004023A207D2B73700F0C8
:101EB00003A7070123A8E7001307300023AAE700C0
:101EC000F32700BC93E71700739007BC67800000FE
:101ED000B757004083A787D2B756004003A746D222
:101EE000E31EF7FE67800000130101FF2324810039
:101EF000232291002326110093040500138405007A
:101F0000EF0000023305A4028320C10003248100F6
:101F10003385A44083244100130101016780000040
:101F2000130101FF232611002324810023229100A5
:101F3000232021016382050A1304050063000508BC
:101F40001385050013890500EF00D05193040500A7
:101F500013050400EF0010513387A4409307F001EC
:101F600063ECE706630CF7041307170093060002FF
:101F7000B386E640B316D400930700003354E40060
:101F80009305F9FF1314140013D5F601336585008A
:101F90003384A540939616001356F441B3E6F60039
:101FA0001307F7FF9357F401337426013304854078
:101FB000E31A07FC9396160033E4F6008320C10071
:101FC0001305040003248100832441000329010038
:101FD0001301010167800000130400006FF01FFE71
:101FE0009357F54113D7F5413345F500B3C5E500E7
:101FF000130101FFB385E5403305F540232481003B
:102000002326110033C4E700EFF09FF1334585002C
:102010008320C100330585400324810013010101A1
:1020200067800000370700801347F7FFB376A700EB
:10203000B708807F9307050063E2D804B376B70042
:102040001305100063EAD802B3E6F50033F7E600A3
:10205000130500006302070233F7F5001305F0FFD4
:10206000634A070063CAB700B387B7403335F0004F
:1020700067800000E3DAF5FE6780000013051000BA
:102080006FF09FFF370700801347F7FFB376A70075
:10209000B708807F9307050063E2D804B376B700E2
:1020A0001305F0FF63EAD802B3E6F50033F7E60064
:1020B000130500006302070233F7F5001305F0FF74
:1020C000634A070063CAB700B387B7403335F000EF
:1020D00067800000E3DAF5FE678000001305F0FF7B
:1020E0006FF09FFF370700801347F7FF3375A70096
:1020F000B707807F63ECA70033F5E50093871700EF
:102100003335F500134515006780000013051000F6
:10211000678000006FF01FF16FF0DFF06FF09FF04D
:102120006FF05FF6130101FE13070500232821015C
:102130001385050013890500B705008093C7F5FFD7
:1021400033F6E700B706807F23225101232E1100CA
:10215000232C8100232A91002326310123244101CD
:10216000232061019308F6FF1388E6FF930A070016
:10217000B3F7A700636818139385F7FF6364B81E6D
:102180006376F600930A09001309070013D47A0155
:10219000B70480009384F4FF135A79011374F40F89
:1021A000B3F99A00137AFA0FB3749900631E04000E
:1021B00013850900EF00102B130585FF1304100091
:1021C000B399A9003304A440631E0A0013850400D8
:1021D000EF005029130585FF130A1000B394A400E3
:1021E000330AAA4037070004370500809399390065
:1021F0009397340033FBAA0033C92A01B3E9E900FD
:10220000B3E7E700B3064441630244031307F00158
:102210006364D710130700023307D7403397E700F2
:102220003337E000B3D7D700B367F700635A090E1E
:10223000B384F94013050000638CF906B707000466
:1022400063F0F41013850400EF00D0211305B5FFEF
:10225000B394A4003304A440634280029307F401C2
:1022600013051000B397F40033048540B3D4840001
:10227000B337F000B3E497001304000013F77400C1
:102280009394640093D494001315740133659500FE
:10229000930740003365AB0063DEE70A13051500C2
:1022A0006F00000163FAC602B705400033E5E500A0
:1022B0008320C101032481018324410103290101F9
:1022C0008329C100032A8100832A4100032B0100D6
:1022D000130101026780000063F8F6003705400033
:1022E0003365A9006FF0DFFC631ED6003349E500BB
:1022F00013050700E31EB9FAB757004003A547A02E
:102300006FF01FFBE386D7FA63120606E39207FA23
:102310003375E5006FF0DFF9930710006FF01FF1E0
:10232000B384F900B7070008B3F7F400638A070025
:1023300093D7140093F41400B3E49700130414002B
:102340009307E00FE3DA87F03705807F3365AB0052
:102350006FF01FF6E31EF7F4130515001375E5FF84
:102360006FF01FF5E3ECF6F6E384D7F413050700EE
:10237000E39807E06FF0DFF3B7070080B3C5B7005D
:102380006FF05FDA130101FE232821011359750153
:1023900013D77501232A91001379F90FB704800030
:1023A000130605009384F4FF232C810023263101BA
:1023B00033C4A50023225101232061019379F70F33
:1023C00037050080232E1100232441011307F9FF54
:1023D0009307D00F33FBC400938A05003374A40025
:1023E000B3F4B40063E6E7001387F9FF63FAE7107C
:1023F000B706008093C6F6FF33F5C600B707807FA7
:1024000063FAA702B705400033E5C5008320C10188
:102410000324810183244101032901018329C1008F
:10242000032A8100832A4100032B010013010102CA
:1024300067800000B3F6560163F8D7003705400007
:10244000336555016FF09FFC6318F5006380061437
:102450003365A4006FF09FFB6398F60063080512D4
:102460003365D4006FF09FFA63160500130504006E
:102470006FF0DFF9E38C06FE33F5C700130A0000A6
:10248000631E050013050B00EF00C07D130A85FFD6
:1024900013071000331B4B01330A47413705807F78
:1024A00033755501631E050013850400EF00807B22
:1024B000130785FFB394E4003307EA40130A1700BB
:1024C00093978400B7068000B7040080336BDB006D
:1024D000B3E7970033B56703330739013307470183
:1024E000B376D500B387670363800602130727F826
:1024F0009306E00F63D6E6023705807F6FF05FF545
:10250000130A00006FF0DFFB93D6F70113151500D7
:10251000130717F83365D500939717006FF05FFD29
:102520006344E00493061000B386E6401306F0010E
:10253000E36ED6F21307F7013316E500B3D5D700E3
:10254000B397E7003366B600B337F000B367F60021
:102550003355D500370700803365A4006370F70258
:10256000130515006FF09FEA13159500135595009C
:10257000131777013365E5006FF0DFFDE398E7E8B7
:10258000130515001375E5FF6FF05FE8B7570040BE
:1025900003A547A06FF09FE7130101FE232A9100D6
:1025A000935475012326310193F4F40FB709800089
:1025B000130805009389F9FF232C8100232441018E
:1025C0003344B500232251012320610113DA750140
:1025D00037050080232E1100232821011387F4FFE3
:1025E0009307D00F33FB0901938A0500137AFA0F82
:1025F0003374A400B3F9B90063E6E7001307FAFFE8
:1026000063F6E718B707008093C7F7FF33F50701B4
:10261000B705807F63FCA502B705400033E40501E0
:102620008320C10113050400032481018324410197
:10263000032901018329C100032A8100832A410063
:10264000032B01001301010267800000B3F757015B
:1026500063F8F50037054000336455016FF05FFC07
:102660006318B500638CA7003364A4006FF05FFBB0
:10267000E388B7FA631A0500E39407FAB7570040F6
:1026800003A447A06FF0DFF9639607003364B4003A
:102690006FF01FF933F5050113090000631E0500F3
:1026A00013050B00EF00005C130985FF13061000F3
:1026B000331B2B01330926413705807F33755501C4
:1026C000631E050013850900EF00C059130685FF3E
:1026D000B399C9003306C9001309F6FF3705800016
:1026E000B3E9A900B7F6047593978900938636334A
:1026F0003367AB003385F640B336F5023386444189
:1027000033062601B306D040B385A602B3B6A602AF
:1027100013D5F5019396160033E5A600B335F502FF
:10272000B305B040B386A502B3B5A50213D5F60133
:102730009395150033E5A500B3B7A702B306F040A3
:10274000B387A602B3B6A60293D7F70193961600F5
:10275000B3E7F6009387E7FF93161700B3B7D702E6
:10276000B706000163F8D7023385F9021317870112
:102770001306F6FF3307A7409306F6071306E00F8C
:102780006354D6023705807F6FF01FEE13090000F7
:102790006FF0DFF493D717003385F9021317770131
:1027A0003307A7406FF05FFDE35CD0E69397970097
:1027B00093D797009396760113171700B3E7F600A7
:1027C00033B7E900B307F70033E487006FF05FE544
:1027D00093D8F54113D3F64133476600B34715014B
:1027E00033066740B3C51501B3C66600338517418C
:1027F0003338C700B3B7A700B3866640B385154129
:10280000130101FFB385F54013070000B3860641AD
:10281000232481002326110033C46800EF00C00286
:10282000B347A400B345B400338587408320C1007B
:10283000B385854003248100B3B7A700B385F54075
:102840001301010167800000130101FE232C8100A8
:102850002328210123263101232441012322510170
:10286000232E1100232A910013040500138905006B
:10287000930A0600138A060093090700639405046F
:1028800063980602630A070093050600EFF0CFE5A0
:1028900023A0A90023A2090093850A0013050400C0
:1028A000EFF00FE813040500130900006F0080101B
:1028B0006306070023A0A9002322070013040000D9
:1028C0006F00400F6314060A639406007300100043
:1028D00063140502630C07009385060013050900C5
:1028E000EFF08FE023A2A90023A0090093050A00BE
:1028F000130509006FF0DFFA9387F6FF33F7D7006F
:102900006312070263880900B3F7B70023A0A90088
:1029100023A2F90013050A00EF00403E3354A9003A
:102920006FF09FF813850600EF00C0339304050095
:1029300013050900EF0000333383A4409307E0013F
:1029400063FC67006386090023A0890023A2290194
:10295000130400006FF05FF51303130093060000EB
:1029600093070002B38767406F00000B639006185F
:102970009307F6FF33F7C70063140706638809005F
:10298000B3F7A70023A0F90023A2090093071000C2
:102990006382FA0213850A00EF00403693070002B3
:1029A000B387A740B317F9003354A40033E487007A
:1029B0003359A9008320C1011305040003248101B8
:1029C000832441018329C100032A8100832A410015
:1029D000930509000329010113010102678000002A
:1029E00013050600EF0000289304050013050900F5
:1029F000EF004027B387A44013831702930500021A
:102A000093060000630CB3101307F00163626702C2
:102A100093060000B38765403318F4003355640013
:102A2000B317F90033566900B3E7A7006F008002BF
:102A300093080004B3886840938717003355F40067
:102A4000B3161401B318190133E8A80013060000E7
:102A5000B357F9001304000093D5F70113171600BC
:102A60003366B700939717001357F801B3E7E700F1
:102A700093C5F7FF13D7F601131818001395160026
:102A80003368E800B36685001347F6FF33845501C9
:102A90003334B400330747013304E4001357F441DF
:102AA000B3755701B385B74033774701B3B8B70063
:102AB0003307E6401303F3FF1354F4019387050033
:102AC00033061741E31A03F813D9F6011318180057
:102AD000139516003364850033690901E38C09EC12
:102AE00023A0B90023A2C9006FF0DFEC1385060014
:102AF000EF0040179304050013050900EF0080164E
:102B00003383A4409307F001E3EE67E2130313005D
:102B10009307000293060000E316F3E41308040091
:102B200013060000930709006FF0DFF2630A050A3D
:102B3000130101FF23248100232291002326110089
:102B40001304050093040000635605003304A040FD
:102B5000B704008013050400EF00C0101307F00154
:102B60003307A7409307700163CEE702930785FF01
:102B70003314F400B7078000B347F4001307E009EB
:102B80008320C100032481003305A740131575017C
:102B90003305F500336595008324410013010101DD
:102BA0006780000093078000B387A740B357F40005
:102BB00037078000B3C7E700130785013314E4002B
:102BC0003707008063768700938717006FF01FFB3D
:102BD000E316E4FA9387170093F7E7FF6FF01FFA05
:102BE0001305000067800000930605001306F0FF40
:102BF000634405001306100013D776011377F70F0F
:102C0000930517F81305000063CC05049307F00142
:102C100063FAB70093071000370500806300F604DD
:102C200067800000370880009307F8FF33F5D7006E
:102C3000930760013365050163CCB700930770010A
:102C4000B385B7403355B5003305C5026780000032
:102C50001307A7F63315E5006FF01FFF1345F5FFC7
:102C600067800000B707FFFFB377F50013B71700C1
:102C70001317470093070001B387E7403355F5006A
:102C8000B7070100938707F0B377F50093B71700F4
:102C90009397370093068000B386F6403355D500EE
:102CA0009376050F93B6160093962600B387E70038
:102CB000130740003307D7403355E500B387F600CC
:102CC0009376C50093B6160013062000939616005F
:102CD0003307D6403355E500135715001347170047
:102CE000137717003307E0403305A6403375A7007C
:102CF000B386F6003305D500678000009316050102
:102D000093D6060193B6160093964600B357D500A6
:102D100013F7F70F1337170013173700B3D7E70070
:102D2000B306D70013F7F700133717001317270060
:102D3000B3D7E700B306D70013F7370013371700F0
:102D400013171700B3D7E70013D617001305200099
:102D5000137616003306C54013C5F7FF137515002B
:102D60003305A0403375A6003307D7003305E500CF
:102D700067800000130700006FF01FAD130101FE14
:102D800013078100232E1100EFF01FAC8320C10137
:102D9000032581008325C100130101026780000023
:102DA000130101FE232C810093D8F64113D4F54181
:102DB00033471601B34785003306174133858740F3
:102DC000B3C61601B3C585003338C700B3B7A70033
:102DD000B3861641B385854013078100B385F5405E
:102DE000B3860641232E1100EFF01FA68325810034
:102DF0008327C1008320C101B3C585003385854089
:102E0000B3C7870033848740B3B5A500B305B4408A
:102E1000032481011301010267800000130101FDF9
:102E200037570040232E3101232C4101232A510121
:102E300023286101232611022324810223229102E7
:102E40002320210323267101930A0500138B05001B
:102E5000130A0600930905001307178A93860900D1
:102E600003C4090093891900B307E40083C707006E
:102E700093F78700E39407FE9307D002631EF40CD8
:102E800003C40900930B100093892600630E0A16F1
:102E9000930700016316FA04930700036312F40416
:102EA00083C709001307800593F7F70D6396E714AE
:102EB00003C4190013079000930704FD93F7F70F5D
:102EC000637CF7009377F4FD9387F7FB93F7F70F95
:102ED000130750006362F71293892900130A000157
:102EE000B704008093C4F4FFB3849B0093050A00E9
:102EF00013850400EFE05FFF93050A001309050046
:102F000013850400EFF0CF8193060500130700003E
:102F1000130500009305900013069001930704FD2C
:102F200063E8F50413840700635844076342070607
:102F30001307F0FF63ECA6006394A60063488900C2
:102F4000B307AA02130710003305F4009389190090
:102F500003C4F9FF6FF09FFC9307B002930B0000CE
:102F6000E316F4F203C40900938926006FF01FF200
:102F70009307F4FB6366F600130494FC6FF0DFFA2A
:102F80009307F4F9636AF600130494FA6FF0DFF91B
:102F90001307F0FF6FF09FFB63520704B757004021
:102FA0001307200223AAE7D21385040063100B0441
:102FB0008320C102032481028324410203290102E8
:102FC0008329C101032A8101832A4101032B0101C5
:102FD000832BC100130101036780000063840B0091
:102FE0003305A040E3060BFC63040700938AF9FF56
:102FF00023205B016FF0DFFB13040003E3120AEEF2
:10300000130A80006FF0DFED93070003E30AF4E892
:10301000130AA0006FF0DFEC130810009306050000
:103020009387050063060601130840026370C80217
:103030003757004013066001232AC7D26384070074
:1030400023A0D70013050000678000006FF01FDD8C
:10305000B757004003A587A06F00501A130101FC69
:10306000232AF102B75700402322B102930505003D
:1030700003A507A12324C10213064102232E110038
:103080002326D1022328E102232C0103232E11033E
:103090002326C100EF00C0188320C10113010104E1
:1030A00067800000B757004083A507A16F00D01CC0
:1030B000B757004083A507A1130101FE232C81000F
:1030C000232A9100232E110083C725001304050035
:1030D0009304000093F72700639A07029304F0FF1C
:1030E0008320C1010324810113850400832441014D
:1030F00013010102678000002326B100E78007006A
:103100008325C100635405009304F0FF03450400C8
:103110001304140083A74500E31005FE1305A00067
:10312000E7800700E35E05FA6FF05FFB130101FD26
:103130002322910223202103232E3101232C41013C
:10314000232861012326110223248102232A51010D
:1031500023267101232481012322910193F7062064
:1031600093090500138A05001309060093840600DD
:10317000130B70026386070093F4F6DF130B7000E5
:1031800093DAF441930C90001386040093860A00AE
:103190001385090093050A00EFF05FBE93050A004E
:1031A0001374F50F138604001385090093860A0033
:1031B000EFF05FBC138C0900930B0A009309050024
:1031C000138A050063F68C00330464011374F40F52
:1031D0001309190013040403A30F89FE63E65B01BE
:1031E000E3947AFBE3729CFA8320C10203248102F8
:1031F000832441028329C101032A8101832A4101D9
:10320000032B0101832BC100032C8100832C41007F
:10321000130509000329010213010103678000005F
:10322000130101F9232C41052326110623248106CD
:103230002322910623202107232E3105232A51051D
:103240002328610523267105232481052322910566
:103250002320A105232EB10383472500032A45001F
:1032600093F727006386072C375C004093074C9B3D
:10327000B75C00402320F100375D00409387CC9A73
:103280002322F10093074D9A930905009304060049
:10329000930D0000930A81012324F10003CB050064
:1032A000630A0B2893075002938B15006318FB00E9
:1032B00003CB1500938B25006310FB02938D1D003B
:1032C0009385090013050B00E7000A0063420526F9
:1032D00093850B006FF09FFC130D00001309000095
:1032E000130400001306F0019305C00613058006C1
:1032F0001308C0049308A0061303A007130E400789
:10330000930E9000130FA002930FE0029306A0000B
:103310009302F00793030001636A860413070BFE10
:103320001377F70F63E6E3048327010013172700E1
:103330003307F70003270700670007001364140032
:1033400003CB0B00938B1B00E3180BFC6F00000EEC
:1033500013642400136444006FF09FFE1364840020
:103360006FF01FFE136404016FF09FFD63EC820693
:1033700013070BFD1377F70F63E4EE02137B0404CE
:1033800063080B00B307DD02338DE7006FF05FFBCE
:103390003309D902136404023309E9006FF05FFABC
:1033A0006318EB03137B040403A704009384440015
:1033B000631A0B0C63480700136404021309070027
:1033C0006FF01FF83309E040136484026FF05FF779
:1033D000631AFB0113770404631E071413640404C7
:1033E0006FF01FF6631CBB0013770408630407002B
:1033F00013640420136404086FF09FF4631CAB0093
:10340000137704106304070013640420136404108A
:103410006FF01FF363160B01136404286FF05FF263
:10342000E30C1BFFE30E6BF0E30CCBF1635A0D00D2
:103430001374F4FB1314040113540401130D00005E
:1034400013670B029306B7F993F6F60F13062000E5
:103450006376D60093061006631AD702938474002D
:10346000832C410093F484FF93848400130B700039
:1034700013748400138C0D0063160408B38D2D01A2
:103480006F00C007130D07006FF09FEB9306300627
:10349000631EDB0083A70400130B10009384440019
:1034A000230CF100938C0A006FF09FFC9306300709
:1034B0006312DB0C83AC0400138C440063940C0097
:1034C000832C8100937604049305F0FF6384060047
:1034D00093050D0013850C00EF000050130B050041
:1034E00093040C006FF0DFF89385090013050002C8
:1034F000E7000A00634E05021309F9FF338C2D41E2
:10350000E3642BFF13040000B30D8C0063168B00E3
:10351000330969416F008026B3868C0003C506001D
:103520009385090013041400E7000A00E35E05FC1C
:10353000930DF0FF8320C1060324810683244106F6
:10354000032901068329C105032A8105832A410530
:10355000032B0105832BC104032C8104832C41041C
:10356000032D010413850D00832DC10313010107F1
:1035700067800000930640066306DB009306900612
:103580006310DB0C13770408630407081377042027
:10359000630807069384740093F484FF03A5040072
:1035A00083A54400138B840063DC05003337A0003F
:1035B000B305B040B385E5403305A0401364044033
:1035C0001377F4FE1317070113740404135707014C
:1035D000630A040063180D00B366B500930C000085
:1035E0006386060C2326E1009306A00013860A00DA
:1035F000EFF0DFB30327C100B30C55416F00000BA0
:1036000003A50400138B44009355F5416FF0DFF9D7
:103610001377041003A50400138B4400E30607FE90
:10362000137704206308070013158501135585419E
:103630006FF09FFD13150501135505416FF0DFFC79
:10364000930650076310DB141374F4FE1314040183
:10365000135404019306A000137704086308071AA3
:1036600013770420630C07189384740093F484FF89
:1036700003A5040083A54400138B8400137794FFF3
:103680001317070113760404135707016306061A7C
:1036900063140D1A3366B5006310061A137494FE92
:1036A0001317040113570701930C000093760704C6
:1036B000638806189374E7FF9394040193D404017C
:1036C000138C0C0063D0AC03B7150000B375B700C2
:1036D000130C0D00639805001374E7FE93140401A6
:1036E00093D4040113F7040163000718930701033F
:1036F00033879701834577FE130700036398E5142A
:1037000093F4F4FE9394040193D4040113F784001A
:103710006310070213F71400630E0716138D0C00D5
:1037200063582C0133048941330D9401130C0900B3
:1037300013F70401630807189385090013050003B4
:10374000E7000A00E34605DE13D7C400137717002D
:1037500063160714938D1D00B304BD01B387B441F4
:1037600063C8FC1813840C00B384BC01B38D84407F
:10377000631C04183309894193040B003309B90110
:103780006F00801B9306F0066306DB0693060007B6
:10379000631CDB0037170000130707013364E400E4
:1037A000930600016FF05FEB930680076318D70262
:1037B000130780056306EB00371700006FF01FFE4C
:1037C00037270000130707803364E4001314040153
:1037D00013540401930600216FF01FE8938509003C
:1037E00013055002E7000A00E34405D4938D2D0031
:1037F0006FF01FAD930680006FF01FE603A5040075
:10380000138B4400930500006FF05FE713770410FB
:1038100003A50400138B4400E30607FE137704207E
:10382000630607001375F50F6FF0DFFD1315050133
:10383000135505016FF01FFD2326E1006FF01FDB1C
:10384000138C0C00930407006FF0DFE913D7C4005A
:103850001377170063160700130C1C006FF01FEBA3
:10386000130C2C006FF09FEA13F76440E30007EAA3
:103870006FF09FFE9385090013050002E7000A0020
:10388000E34805CA130C1C00B30D8401E3442CFF6C
:103890006FF01FEA33848D416FF01FFF93D4B400A3
:1038A00093F41400938D2D00130580056394040098
:1038B0001305800793850900E7000A00E35E05E829
:1038C0006FF01FC713F76440E30807E813F72400FD
:1038D00013050002630407001305B00293F40440CB
:1038E000638404001305D002938D1D006FF09FFCCC
:1038F0009385090013050003938D1D00E7000A005E
:10390000E35E05E46FF0DFC21304F4FFB3878A00BF
:1039100003C5070093850900E7000A00E35805E4A2
:103920006FF01FC19385090013050002938D1D00E0
:10393000E7000A00E34E05BEB307B941E344F0FED9
:103940006FF01F9913030500630A06002300B300FC
:103950001306F6FF13031300E31A06FE6780000048
:103960009307050003C7070093871700E31C07FEB2
:103970003385A7401305F5FF67800000130101FFA1
:1039800023261100EFE04FC7E30E05FEEFE08FC1E5
:103990008320C1001301010167800000130101FFB2
:1039A000232481002326110013040500EFE08FC6B5
:1039B0009307A0006318F400930500001305D000DE
:1039C000EFF0DFFD8320C100130504000324810014
:1039D0001301010167800000B305B50093070500DE
:1039E0006386B70003C70700631607003385A74047
:1039F00067800000938717006FF09FFE83472500C4
:103A000093F7170063860706130101FF835705002C
:103A10002324810023261100231005001304050030
:103A2000638C070013F5F70F8320C1000324810086
:103A3000130101016780000083278500E7800700EC
:103A4000930705001375F50FE3D007FE1306F0FF8B
:103A500003072400930640006384C7009306800098
:103A6000B367D7002301F4001305F0FF6FF0DFFB0D
:103A70001305F0FF6780000003C7250013772700B8
:103A8000631007021305F0FF678000001305F0FFC5
:103A90008320C1000324810013010101678000001D
:103AA00083A74500130101FF232481002326110071
:103AB000130405001375F50FE7800700E34805FCC4
:083AC0001375F40F6FF0DFFC39
:103AC8002573203E2000000048656C6C6F2C20494F
:103AD8006E6372656D656E74210A000056616C3AFA
:103AE800256420204379636C65733A20256420207F
:103AF800204379636C65732F286C6F61642D616452
:103B0800642D73746F7265293A2025640A0A0A00C5
:103B180048656C6C6F2C2053746F7265210A000025
:103B280056616C3A256420204379636C65733A20AA
:103B380025642020204379636C65732F73746F723A
:103B4800653A2025640A0A0A0000000048656C6C82
:103B58006F2C2053747269646564204C6F61642112
:103B68000A00000056616C3A256420204379636C92
:103B780065733A2025642020204379636C65732F90
:103B88006C6F61643A2025640A0A0A0048656C6C07
:103B98006F2C20436163686564204C6F6164210A5F
:103BA8000000000048656C6C6F2C204C6F6164212C
:103BB8000A00000042656E63686D61726B73204D88
:103BC800656E750062656E63686D61726B000000FA
:103BD80073657175656E7469616C206C6F6164736F
:103BE8002062656E63686D61726B20286578706508
:103BF8006374206F6E65206D697373207065722021
:103C08006361636865206C696E652C206F6E652042
:103C18006576657279206569676874206163636594
:103C28007373657329000000636163686564206CC1
:103C38006F6164732062656E63686D61726B2028C2
:103C480065787065637420616C6C20686974732989
:103C58000000000073747269646564206C6F6164AD
:103C6800732062656E63686D61726B202865787079
:103C780065637420616C6C206D69737365732900CA
:103C880073657175656E7469616C2073746F7265A4
:103C9800732062656E63686D61726B006C6F61643E
:103CA8002D696E6372656D656E742D73746F7265C0
:103CB8002062656E63686D61726B20286578706537
:103CC8006374206D6973736573290000655869749E
:103CD80020746F2070726576696F7573206D656EDC
:103CE800750000000A507265737320616E79206B4D
:103CF800657920746F20657869742E20204163638C
:103D0800656C6572617465642076657273696F6E3F
:103D18002E0A00002564206379636C65730A00002D
:103D28001B5B32354100000025642064696666002B
:103D38004379636C65204C696D69742052656163D1
:103D4800686564200A2065786974696E6720646F05
:103D58006E7574002E2C2D7E3A3B3D212A2324407B
:103D680000000000576F726C6400000048656C6CBE
:103D78006F2C202573210A0043465520506C617929
:103D880067726F756E6400006D61696E00000000F7
:103D980046756E6374696F6E616C20434655205496
:103DA800657374730000000050726F6A6563742055
:103DB8006D656E7500000000506572666F726D610A
:103DC8006E636520436F756E7465722054657374F5
:103DD8007300000042656E63686D61726B7300006A
:103DE8005574696C2054657374730000456D626581
:103DF8006E636820496F5400446F6E757420646563
:103E08006D6F0000496C6C6567616C20496E737456
:103E180072756374696F6E205465737473202874A7
:103E280068657365202A57494C4C2A2068616E677B
:103E3800206F6E20466F6D752129000062656E63E4
:103E4800686D61726B7300004E6F20456D62656E20
:103E5800636820776F726B6C6F6164732073656C35
:103E680065637465642120436865636B20646566D7
:103E7800696E657320696E204D616B6566696C6556
:103E88002100000043465520496E746572616374D1
:103E980069766520546573743A00000020204669ED
:103EA800727374206F706572616E642076616C75D0
:103EB8006520200020205365636F6E64206F706555
:103EC80072616E642076616C756520006366755F4B
:103ED8006F70253164282530386C782C20253038CF
:103EE8006C7829203D202530386C78202868657842
:103EF800292C20256C6420287369676E6564292C39
:103F080020256C752028756E7369676E6564290AAB
:103F180000000000434655205445535420666F72F4
:103F2800206F70302C203120616E6420323A0000FE
:103F380061726730202020202020202061726731A4
:103F480020202020202020206F70302020202020BA
:103F5800202020206F7031202020202020202020A9
:103F68006F70320030782530386C782C2030782506
:103F780030386C783A2030782530386C782C2030FE
:103F8800782530386C782C2030782530386C780AD1
:103F98000000000043465520434F4D5041524520F4
:103FA8005445535420666F72206F70302C20312C8A
:103FB80020616E6420323A00617267302020202030
:103FC80020202020617267312020202020202020FE
:103FD80020202020666E3020202020202020202035
:103FE800202020202020666E312020202020202024
:103FF80020202020202020666E32000030782530D6
:10400800386C782C2030782530386C783A20307825
:104018002530386C783A30782530386C782C203058
:10402800782530386C783A30782530386C782C2000
:1040380030782530386C783A30782530386C7820EC
:104048003C3C3D3D3D204D49534D41544348210A98
:104058000000000052616E20256420636F6D70615E
:104068007269736F6E732E2E2E2E0A0052616E20A7
:10407800256420636F6D70617269736F6E732E0AA9
:1040880000000000546573747320666F72204675D3
:104098006E6374696F6E616C20434655730000004F
:1040A80066756E6374696F6E616C000052756E2080
:1040B8006669786564204346552074657374730097
:1040C80052756E2068772F737720636F6D706172F9
:1040D800652074657374730052756E20696E74651B
:1040E8007261637469766520746573747300000087
:1040F8004F4B202020496E737472756374696F6E1C
:104108002068616E646C65722074657374732070C6
:1041180061737365642E00000A25730A25730A000B
:1041280025733E20000000002025633A2025730AED
:1041380000000000202A756E6B6E6F776E2A0A00E9
:104148000A52756E6E696E672025730A00000000BA
:104158002D2D2D00436F756E746572733A0A000039
:104168002020303A2020202020202538640A000012
:104178002020313A2020202020202538640A000001
:1041880020206D6379636C653A202538640A000045
:104198002D63757272207065726620636F756E7418
:1041A80065722025643A2025750A00007A65726FC9
:1041B800207065726620636F756E74657220256461
:1041C80020616E64206D6379636C650A00000000ED
:1041D8007061757365207065726620636F756E74A3
:1041E80065722025640A0000656E61626C65207046
:1041F80065726620636F756E7465722025640A00A7
:1042080031207820314D20697465726174696F6E50
:10421800733A202020202537750A0000314D207878
:10422800206D656173757265206E6F7468696E675D
:104238003A202537750A0000314D2078206D6561D8
:1042480073757265206E6F703A2020202020253704
:10425800750A0000314D2078206D656173757265AF
:1042680020312078206E6F703A202537750A0000BB
:10427800314D206D6561737572656D656E74733A45
:104288002020202020202537750A00000A0A000077
:10429800416C6C206D6561737572656D656E7473C4
:1042A80020616464202020202020202025327520D1
:1042B8006379636C657320706572207374617274BE
:1042C8000A000000436F756E74657220656E616246
:1042D8006C652B64697361626C652061646473202A
:1042E800253275206379636C65732070657220735D
:1042F800746172740A0000007065726620636F75DD
:104308006E746572000000007377697463682074C6
:104318006F207065726620636F756E7465722030E9
:1043280020616E642073686F772076616C75650014
:1043380073776974636820746F2070657266206390
:104348006F756E746572203120616E642073686FBA
:10435800772076616C756500456E61626C652063D7
:10436800757272656E74207065726620636F756E03
:104378007465720050617573652063757272656E3D
:1043880074207065726620636F756E7465720000C4
:104398005A65726F2063757272656E7420706572EB
:1043A8006620636F756E74657220616E64206D633C
:1043B80079636C650000000053686F772070657240
:1043C8006620636F756E7465727320616E64206D0C
:1043D8006379636C652076616C7565730000000015
:1043E8004D65617375726520636F756E74657220B3
:1043F8006F76657268656164000000002532643A72
:10440800200000002564206F7574206F66202564E5
:10441800207061737365640A000000004F4B000050
:104428006D75726D757268617368335F33322864B5
:104438006174612C20256429206578706563746532
:1044480064202530386C782C20676F74202530382C
:104458006C782025730A00004641494C0000000092
:104468006120200025733A20256325642E253033EA
:10447800640A000062202000612B6200612A620049
:10448800612D6200612F620050726F6A656374204B
:104498004D656E750000000070726F6A6563740088
:1044A8006D75726D75726861736820746573747365
:1044B80000000000465055207465737473000000B6
:1044C80000000000000000000000000000000000E4
:1044D8000000000000000000000000000659C06352
:1044E8004400000000000000000000000000000080
:1044F8000000000001000000120988682082000006
:1045080000000000000000000000000000000000A3
:1045180002000000D77C07843CFDE6000000000094
:104528000000000000000000000000000300000080
:10453800F937E25EF1C26B300000000000000000B5
:1045480000000000000000000400000001C2CC7B55
:10455800F90EC7DD010000000000000000000000A7
:1045680000000000050000008539C3E9E4887534BF
:10457800A20F000000000000000000000000000082
:10458800060000007FF03BD00B0D04C36ED80E0070
:10459800000000000000000000000000070000000C
:1045A80079B31B9271E0FD77B07670EB00000000E4
:1045B800000000000000000008000000FD40F8773F
:1045C800940BD5335F973DAAD80000000000000087
:1045D8000000000009000000783019BF619B91FFBE
:1045E800C911F57CCED400000000000000000000D6
:1045F8000A0000002897198358BBBF2CE03753C91D
:10460800BDFA0F0000000000000000000B000000D1
:10461800AC31E79BF0169DC9575674066676CFB045
:1046280000000000000000000C0000008452BFD60B
:10463800B4EB8902C44269DA1CF6BA66D3000000FA
:10464800000000000D000000B6E68AF3F8B6D4B109
:1046580000A9EA0E755A5C2E8210000000000000C6
:104668000E000000D08238FE242A08E7078F7F89D1
:10467800385EB09423555100000000000F00000080
:104688004F9BD8ED82568B96E8A4FEF23A0C9FC554
:10469800AFD760840000000010000000231443E33B
:1046A80037816BDD0A7309CB4A1252E4DA70E6727D
:1046B8000F00000011000000EC4ED2A2CAA4DA1EBE
:1046C80098406C189C24279E9851D581420400007C
:1046D8001200000042D129F8136FEB5713C166B1DD
:1046E8003269DD63FC35C797FF08A6001300000098
:1046F80000000000000000000000000000000000B2
:104708000000000000000000FFFFFFFF48656C6C20
:104718006F2C20576F726C642121210A0000000061
:104728000A457865726369736520434655204F7062
:10473800300A000061202020622D2D3E000000007C
:10474800253864000A2D2D2D2D2D2D2D2D2D2D2DA7
:104758002D2D2D2D2D2D2D2D2D2D2D2D2D2D2D2D81
:104768002D2D2D2D2D2D2D2D2D2D2D2D2D2D2D2D71
:104778002D2D2D2D2D2D2D2D2D2D2D2D0000000015
:10478800252D3864000000000A4578657263697356
:104798006520434655204F70310A0000613A2025B4
:1047A80030387820623A25303878206366753D25A0
:1047B8003038780A000000000A2A2A2A4641494C63
:1047C8000A0000000A65787065637420253038781F
:1047D8000A000000506572666F726D65642025647A
:1047E80020636F6D70617269736F6E7300000000F3
:1047F800613A202530387820623A253038782063AD
:1048080066753D25303878206578703D25303878D4
:10481800202061623D253038780A00000A657870EA
:1048280065637420253038782020612A623D253060
:10483800387820206366753A612A623D25303878D9
:104848000A000000657865726369736520636675A0
:10485800206F7030000000006578657263697365C9
:1048680020636675206F703100000000677269640C
:1048780020636675206F70300000000067726964FD
:1048880020636675206F7031000000007361792025
:1048980048656C6C6F00000000202020202020203C
:1048A80020202828282828202020202020202020D8
:1048B80020202020202020202088101010101010E8
:1048C8001010101010101010100404040404040434
:1048D80004040410101010101010414141414141CE
:1048E80001010101010101010101010101010101B0
:1048F80001010101101010101010424242424242C0
:10490800020202020202020202020202020202027F
:104918000202020210101010200000000000000027
:10492800000000000000000000000000000000007F
:10493800000000000000000000000000000000006F
:10494800000000000000000000000000000000005F
:10495800000000000000000000000000000000004F
:10496800000000000000000000000000000000003F
:10497800000000000000000000000000000000002F
:10498800000000000000000000000000000000001F
:10499800000000000000000000000000286E756C98
:1049A8006C2900002A666C6F61742A005433004039
:1049B800703300407033004064330040703300406F
:1049C8007033004070330040403300407033004083
:1049D8007033004070330040503300407033004063
:1049E8005C33004070330040703300403C3300407B
:1049F8005C8F023F00007A44B81E9D400000C07FD3
:104A0800184A0040184A0040184A004000000000B8
:104A1800000003009C3900407C3900400000000081
:104A2800BC3B0040CC3B00406C000000D83B004041
:104A3800BC0300400000000063000000303C004060
:104A48000C03004000000000380000005C3C0040FF
:104A58006C0200400000000073000000883C004029
:104A6800BC0100400000000069000000A43C0040B8
:104A78000C0100400000000078000000D43C004019
:104A8800000000000100000000000000000000001D
:104A98000000000000000000803D0040903D004004
:104AA80032000000983D0040F40C00400000000077
:104AB80033000000B03D00403C1B004000000000F7
:104AC80034000000C03D00406811004000000000B4
:104AD80036000000DC3D00405C040040000000009F
:104AE80037000000E83D0040BC1600400000000010
:104AF80038000000F43D0040580900400000000064
:104B080064000000003E004068040040000000000F
:104B1800490000000C3E0040440E00400000000028
:104B2800000000000000000000000000000000007D
:104B3800F43D0040443E004021000000503E00404B
:104B4800540900400000000078000000D43C0040F8
:104B5800000000000100000000000000000000004C
:104B680000000000000000008C400040A840004009
:104B780066000000B4400040BC0A0040000000008D
:104B880063000000C8400040540B004000000000D3
:104B980069000000E0400040640900400000000097
:104BA80078000000D43C0040000000000100000034
:104BB80000000000000000000000000000000000ED
:104BC800C03D00400043004030000000104300405A
:104BD8002C10004000000000310000003843004065
:104BE8000C10004000000000650000006043004019
:104BF8008C10004000000000700000007C43004062
:104C080078100040000000007A000000984300403F
:104C1800481000400000000073000000C04300403E
:104C2800C00F0040000000006D000000E843004095
:104C3800A01000400000000078000000D43C0040B4
:104C4800000000000100000000000000000000005B
:104C5800000000000000000090440040A044004014
:104C680031000000A8440040741200400000000019
:104C780066000000BC440040BC1300400000000077
:104C880078000000D43C0040000000000100000053
:104C9800000000000000000000000000000000000C
:104CA80090440040A0440040300000004C480040C0
:104CB800A4190040000000003100000060480040D6
:104CC8006C180040000000006700000074480040B5
:104CD800A017004000000000470000008448004082
:104CE800D41600400000000068000000944800400E
:104CF800C81600400000000078000000D43C0040C6
:104D0800000000000100000000000000000000009A
:084D1800000000000000000093
:0400000540000000B7
:00000001FF
